:020000020000FC
:100000000FEF0DBF00E10EBF01D0FFCF20E038D0D1
:1000100067D021E035D064D022E032D061D023E037
:100020002FD05ED024E02CD05BD00FEF0ABB07BBF3
:1000300005D009D00DD011D015D021C020E0F0E0BE
:10004000E8EE15D0089521E0F0E0E2EF10D0089539
:1000500022E0F0E0EEEF0BD0089523E0F1E0E8E0DD
:1000600006D0089524E0F1E0E2E101D00895C895BA
:10007000002021F0102D30D03196F9CF0895089549
:10008000D99818E305D01FE003D016E001D00895F9
:1000900000E0201769F001E0201771F002E020175E
:1000A00079F003E0201781F004E0201789F008952B
:1000B00018BBD89AD898089518BBDB9ADB98089596
:1000C00018BBDC9ADC98089518BBDD9ADD9808957A
:1000D00018BBDE9ADE980895D99ADADFD998089588
:1000E000D99811E0D5DF0895636163616442677454
:1000F00000006B6F6E796F6C4267740000006B6577
:1001000072656E42677400006761756C42677400C7
:100110000000616D70617342677400006F766572F4
:0A012000706F7765726564000000DF
:00000001FF
